{
  "contractName": "BalanceContract",
  "abi": [
    {
      "constant": true,
      "inputs": [],
      "name": "value",
      "outputs": [
        {
          "name": "",
          "type": "uint256"
        }
      ],
      "payable": false,
      "stateMutability": "view",
      "type": "function"
    },
    {
      "constant": true,
      "inputs": [],
      "name": "from",
      "outputs": [
        {
          "name": "",
          "type": "address"
        }
      ],
      "payable": false,
      "stateMutability": "view",
      "type": "function"
    },
    {
      "inputs": [],
      "payable": false,
      "stateMutability": "nonpayable",
      "type": "constructor"
    },
    {
      "constant": false,
      "inputs": [
        {
          "name": "_from",
          "type": "address"
        },
        {
          "name": "_value",
          "type": "uint256"
        },
        {
          "name": "_data",
          "type": "bytes"
        }
      ],
      "name": "tokenFallback",
      "outputs": [],
      "payable": false,
      "stateMutability": "nonpayable",
      "type": "function"
    }
  ],
  "bytecode": "0x608060405234801561001057600080fd5b50336000806101000a81548173ffffffffffffffffffffffffffffffffffffffff021916908373ffffffffffffffffffffffffffffffffffffffff1602179055506102d2806100606000396000f300608060405260043610610057576000357c0100000000000000000000000000000000000000000000000000000000900463ffffffff1680633fa4f2451461005c578063c0ee0b8a14610087578063d5ce33891461011a575b600080fd5b34801561006857600080fd5b50610071610171565b6040518082815260200191505060405180910390f35b34801561009357600080fd5b50610118600480360381019080803573ffffffffffffffffffffffffffffffffffffffff16906020019092919080359060200190929190803590602001908201803590602001908080601f0160208091040260200160405190810160405280939291908181526020018383808284378201915050505050509192919290505050610177565b005b34801561012657600080fd5b5061012f6101db565b604051808273ffffffffffffffffffffffffffffffffffffffff1673ffffffffffffffffffffffffffffffffffffffff16815260200191505060405180910390f35b60025481565b82600160006101000a81548173ffffffffffffffffffffffffffffffffffffffff021916908373ffffffffffffffffffffffffffffffffffffffff1602179055508160028190555080600390805190602001906101d5929190610201565b50505050565b600160009054906101000a900473ffffffffffffffffffffffffffffffffffffffff1681565b828054600181600116156101000203166002900490600052602060002090601f016020900481019282601f1061024257805160ff1916838001178555610270565b82800160010185558215610270579182015b8281111561026f578251825591602001919060010190610254565b5b50905061027d9190610281565b5090565b6102a391905b8082111561029f576000816000905550600101610287565b5090565b905600a165627a7a723058202627e5e77f02c939db0b884a65a15f425054c93b2aa9f78178a8db184d4432a20029",
  "source": "pragma solidity >=0.4.24 <0.7.0;\r\n\r\nimport \"./ERC223ReceivingContract.sol\";\r\n\r\ncontract BalanceContract is ERC223ReceivingContract{\r\n    address owner;\r\n    address public from;\r\n    uint public value;\r\n    bytes data;\r\n    constructor () public {\r\n        owner = msg.sender;\r\n    }\r\n\r\n    function tokenFallback(address _from, uint _value, bytes _data) public {\r\n        from = _from;\r\n        value = _value;\r\n        data = _data;\r\n    }\r\n}",
  "sourcePath": "C:\\Users\\Mehdi\\BC\\contracts\\BalanceContract.sol",
  "compiler": {
    "name": "solc",
    "version": "0.4.24+commit.e67f0147.Emscripten.clang"
  },
  "schemaVersion": "3.1.0",
  "updatedAt": "2020-05-17T15:02:06.440Z",
  "devdoc": {
    "methods": {}
  },
  "userdoc": {
    "methods": {}
  }
}