{
  "contractName": "marketwithERC20",
  "abi": [
    {
      "constant": true,
      "inputs": [],
      "name": "itemCount",
      "outputs": [
        {
          "name": "",
          "type": "uint256"
        }
      ],
      "payable": false,
      "stateMutability": "view",
      "type": "function"
    },
    {
      "constant": true,
      "inputs": [
        {
          "name": "",
          "type": "uint256"
        }
      ],
      "name": "items",
      "outputs": [
        {
          "name": "description",
          "type": "string"
        },
        {
          "name": "seller",
          "type": "address"
        },
        {
          "name": "buyer",
          "type": "address"
        },
        {
          "name": "price",
          "type": "uint256"
        },
        {
          "name": "sold",
          "type": "bool"
        }
      ],
      "payable": false,
      "stateMutability": "view",
      "type": "function"
    },
    {
      "constant": true,
      "inputs": [],
      "name": "emark",
      "outputs": [
        {
          "name": "",
          "type": "address"
        }
      ],
      "payable": false,
      "stateMutability": "view",
      "type": "function"
    },
    {
      "inputs": [
        {
          "name": "_emark",
          "type": "address"
        }
      ],
      "payable": false,
      "stateMutability": "nonpayable",
      "type": "constructor"
    },
    {
      "constant": false,
      "inputs": [
        {
          "name": "_description",
          "type": "string"
        },
        {
          "name": "_price",
          "type": "uint256"
        }
      ],
      "name": "addItem",
      "outputs": [
        {
          "name": "",
          "type": "uint256"
        }
      ],
      "payable": false,
      "stateMutability": "nonpayable",
      "type": "function"
    },
    {
      "constant": true,
      "inputs": [
        {
          "name": "_index",
          "type": "uint256"
        }
      ],
      "name": "getItem",
      "outputs": [
        {
          "name": "",
          "type": "string"
        },
        {
          "name": "",
          "type": "uint256"
        }
      ],
      "payable": false,
      "stateMutability": "view",
      "type": "function"
    },
    {
      "constant": false,
      "inputs": [
        {
          "name": "_index",
          "type": "uint256"
        }
      ],
      "name": "removeItem",
      "outputs": [],
      "payable": false,
      "stateMutability": "nonpayable",
      "type": "function"
    },
    {
      "constant": false,
      "inputs": [
        {
          "name": "_index",
          "type": "uint256"
        }
      ],
      "name": "buyItem",
      "outputs": [],
      "payable": false,
      "stateMutability": "nonpayable",
      "type": "function"
    }
  ],
  "bytecode": "0x608060405234801561001057600080fd5b5060405160208061104583398101806040528101908080519060200190929190505050806000806101000a81548173ffffffffffffffffffffffffffffffffffffffff021916908373ffffffffffffffffffffffffffffffffffffffff16021790555050610fc2806100836000396000f300608060405260043610610083576000357c0100000000000000000000000000000000000000000000000000000000900463ffffffff1680633129e7731461008857806362d6bbdf146101355780636bfb0d01146101bc57806371329171146101e7578063bfb231d214610214578063d77ef6ea14610332578063e7fb74c714610389575b600080fd5b34801561009457600080fd5b506100b3600480360381019080803590602001909291905050506103b6565b6040518080602001838152602001828103825284818151815260200191508051906020019080838360005b838110156100f95780820151818401526020810190506100de565b50505050905090810190601f1680156101265780820380516001836020036101000a031916815260200191505b50935050505060405180910390f35b34801561014157600080fd5b506101a6600480360381019080803590602001908201803590602001908080601f016020809104026020016040519081016040528093929190818152602001838380828437820191505050505050919291929080359060200190929190505050610548565b6040518082815260200191505060405180910390f35b3480156101c857600080fd5b506101d1610608565b6040518082815260200191505060405180910390f35b3480156101f357600080fd5b506102126004803603810190808035906020019092919050505061060e565b005b34801561022057600080fd5b5061023f600480360381019080803590602001909291905050506108d0565b60405180806020018673ffffffffffffffffffffffffffffffffffffffff1673ffffffffffffffffffffffffffffffffffffffff1681526020018573ffffffffffffffffffffffffffffffffffffffff1673ffffffffffffffffffffffffffffffffffffffff16815260200184815260200183151515158152602001828103825287818151815260200191508051906020019080838360005b838110156102f35780820151818401526020810190506102d8565b50505050905090810190601f1680156103205780820380516001836020036101000a031916815260200191505b50965050505050505060405180910390f35b34801561033e57600080fd5b506103476109eb565b604051808273ffffffffffffffffffffffffffffffffffffffff1673ffffffffffffffffffffffffffffffffffffffff16815260200191505060405180910390f35b34801561039557600080fd5b506103b460048036038101908080359060200190929190505050610a10565b005b6060600080600160008581526020019081526020016000209050600073ffffffffffffffffffffffffffffffffffffffff168160010160009054906101000a900473ffffffffffffffffffffffffffffffffffffffff1673ffffffffffffffffffffffffffffffffffffffff1614151515610499576040517f08c379a000000000000000000000000000000000000000000000000000000000815260040180806020018281038252600c8152602001807f6e6f2073756368206974656d000000000000000000000000000000000000000081525060200191505060405180910390fd5b806000018160030154818054600181600116156101000203166002900480601f0160208091040260200160405190810160405280929190818152602001828054600181600116156101000203166002900480156105375780601f1061050c57610100808354040283529160200191610537565b820191906000526020600020905b81548152906001019060200180831161051a57829003601f168201915b505050505091509250925050915091565b6000600260008154809291906001019190505550826001600060025481526020019081526020016000206000019080519060200190610588929190610ea9565b503360016000600254815260200190815260200160002060010160006101000a81548173ffffffffffffffffffffffffffffffffffffffff021916908373ffffffffffffffffffffffffffffffffffffffff1602179055508160016000600254815260200190815260200160002060030181905550600254905092915050565b60025481565b6000600160008381526020019081526020016000209050600073ffffffffffffffffffffffffffffffffffffffff168160010160009054906101000a900473ffffffffffffffffffffffffffffffffffffffff1673ffffffffffffffffffffffffffffffffffffffff16141515156106ee576040517f08c379a000000000000000000000000000000000000000000000000000000000815260040180806020018281038252600c8152602001807f6e6f2073756368206974656d000000000000000000000000000000000000000081525060200191505060405180910390fd5b3373ffffffffffffffffffffffffffffffffffffffff168160010160009054906101000a900473ffffffffffffffffffffffffffffffffffffffff1673ffffffffffffffffffffffffffffffffffffffff161415156107b5576040517f08c379a000000000000000000000000000000000000000000000000000000000815260040180806020018281038252601b8152602001807f6f6e6c792073656c6c65722063616e2072656d6f7665206974656d000000000081525060200191505060405180910390fd5b8060040160009054906101000a900460ff1615151561083c576040517f08c379a00000000000000000000000000000000000000000000000000000000081526004018080602001828103825260118152602001807f6974656d20736f6c6420616c726561647900000000000000000000000000000081525060200191505060405180910390fd5b60016000838152602001908152602001600020600080820160006108609190610f29565b6001820160006101000a81549073ffffffffffffffffffffffffffffffffffffffff02191690556002820160006101000a81549073ffffffffffffffffffffffffffffffffffffffff021916905560038201600090556004820160006101000a81549060ff021916905550505050565b6001602052806000526040600020600091509050806000018054600181600116156101000203166002900480601f01602080910402602001604051908101604052809291908181526020018280546001816001161561010002031660029004801561097c5780601f106109515761010080835404028352916020019161097c565b820191906000526020600020905b81548152906001019060200180831161095f57829003601f168201915b5050505050908060010160009054906101000a900473ffffffffffffffffffffffffffffffffffffffff16908060020160009054906101000a900473ffffffffffffffffffffffffffffffffffffffff16908060030154908060040160009054906101000a900460ff16905085565b6000809054906101000a900473ffffffffffffffffffffffffffffffffffffffff1681565b6000600160008381526020019081526020016000209050600073ffffffffffffffffffffffffffffffffffffffff168160010160009054906101000a900473ffffffffffffffffffffffffffffffffffffffff1673ffffffffffffffffffffffffffffffffffffffff1614151515610af0576040517f08c379a000000000000000000000000000000000000000000000000000000000815260040180806020018281038252600c8152602001807f6e6f2073756368206974656d000000000000000000000000000000000000000081525060200191505060405180910390fd5b8060040160009054906101000a900460ff16151515610b77576040517f08c379a00000000000000000000000000000000000000000000000000000000081526004018080602001828103825260118152602001807f6974656d20736f6c6420616c726561647900000000000000000000000000000081525060200191505060405180910390fd5b6000809054906101000a900473ffffffffffffffffffffffffffffffffffffffff1673ffffffffffffffffffffffffffffffffffffffff166370a08231336040518263ffffffff167c0100000000000000000000000000000000000000000000000000000000028152600401808273ffffffffffffffffffffffffffffffffffffffff1673ffffffffffffffffffffffffffffffffffffffff168152602001915050602060405180830381600087803b158015610c3357600080fd5b505af1158015610c47573d6000803e3d6000fd5b505050506040513d6020811015610c5d57600080fd5b8101908080519060200190929190505050816003015411151515610ce9576040517f08c379a00000000000000000000000000000000000000000000000000000000081526004018080602001828103825260118152602001807f6e6f7420656e6f75676820746f6b656e7300000000000000000000000000000081525060200191505060405180910390fd5b338160020160006101000a81548173ffffffffffffffffffffffffffffffffffffffff021916908373ffffffffffffffffffffffffffffffffffffffff16021790555060018160040160006101000a81548160ff0219169083151502179055506000809054906101000a900473ffffffffffffffffffffffffffffffffffffffff1673ffffffffffffffffffffffffffffffffffffffff166323b872dd338360010160009054906101000a900473ffffffffffffffffffffffffffffffffffffffff1684600301546040518463ffffffff167c0100000000000000000000000000000000000000000000000000000000028152600401808473ffffffffffffffffffffffffffffffffffffffff1673ffffffffffffffffffffffffffffffffffffffff1681526020018373ffffffffffffffffffffffffffffffffffffffff1673ffffffffffffffffffffffffffffffffffffffff1681526020018281526020019350505050602060405180830381600087803b158015610e6957600080fd5b505af1158015610e7d573d6000803e3d6000fd5b505050506040513d6020811015610e9357600080fd5b8101908080519060200190929190505050505050565b828054600181600116156101000203166002900490600052602060002090601f016020900481019282601f10610eea57805160ff1916838001178555610f18565b82800160010185558215610f18579182015b82811115610f17578251825591602001919060010190610efc565b5b509050610f259190610f71565b5090565b50805460018160011615610100020316600290046000825580601f10610f4f5750610f6e565b601f016020900490600052602060002090810190610f6d9190610f71565b5b50565b610f9391905b80821115610f8f576000816000905550600101610f77565b5090565b905600a165627a7a7230582044c64d46cdc3a91c0e2ee6b1af8561d41f62064e4229ff0527bda4d18bea05550029",
  "source": "pragma solidity >=0.4.24 <0.7.0;\r\n\r\nimport \"./ERC20.sol\";\r\n\r\ncontract marketwithERC20 {\r\n\tstruct Item {\r\n\t    string description;\r\n\t    address seller;\r\n\t    address buyer;\r\n\t    uint price;\r\n\t    bool sold;\r\n\t}\r\n\r\n\tERC20 public emark;\r\n\r\n\tmapping(uint256=>Item) public items;\r\n\tuint256 public itemCount;\r\n\r\n\tconstructor (address _emark) public {\r\n\t\temark = ERC20(_emark);\r\n\t}\r\n\r\n\tfunction addItem(string memory _description, uint _price) public returns(uint) {\r\n\t    itemCount++;\r\n\t    items[itemCount].description = _description;\r\n\t    items[itemCount].seller = msg.sender;\r\n\t    items[itemCount].price = _price;\r\n\t    return itemCount;\r\n\t}\r\n\r\n\tfunction getItem(uint _index) public view returns(string memory, uint){\r\n\t    Item storage i = items[_index];\r\n\t    require(i.seller != address(0), \"no such item\"); \r\n\t    return(i.description, i.price);\r\n\t}\r\n\r\n\r\n\tfunction removeItem(uint _index) public {\r\n\t    Item storage i = items[_index];\r\n\t    require(i.seller != address(0), \"no such item\"); \r\n\t    require(i.seller == msg.sender, \"only seller can remove item\");\r\n\t    require(!i.sold, \"item sold already\");\r\n\t    delete items[_index];\r\n\t}\r\n\r\n\tfunction buyItem(uint _index) public {\r\n\t    Item storage i = items[_index];\r\n\t    require(i.seller != address(0), \"no such item\"); \r\n\t    require(!i.sold, \"item sold already\");\r\n\t    require(i.price <= emark.balanceOf(msg.sender), \"not enough tokens\");\r\n\t    i.buyer = msg.sender;\r\n\t    i.sold = true;\r\n\t    emark.transferFrom(msg.sender, i.seller, i.price);\r\n\t}\r\n\r\n}",
  "sourcePath": "C:\\Users\\Mehdi\\BC\\contracts\\marketwithERC20.sol",
  "compiler": {
    "name": "solc",
    "version": "0.4.24+commit.e67f0147.Emscripten.clang"
  },
  "schemaVersion": "3.1.0",
  "updatedAt": "2020-05-17T15:02:06.461Z",
  "devdoc": {
    "methods": {}
  },
  "userdoc": {
    "methods": {}
  }
}